:03000000021D0BD3
:0C1D0B00787FE4F6D8FD758121021D529E
:0E220B009001ECEEF0A3EFF0A3ECF0A3EDF0E9
:10221900E4FFFE9001ECE06E7003A3E06F601DE443
:10222900FDFC9001EEE06C7003A3E06D60070DBD4D
:0C22390000010C80ED0FBF00010E80D7EB
:012245002276
:0924DC00EF25E025E0FFDFFE2200
:04236900AD07AC060A
:10236D00E4FBFAC3EB9DEA9C50189000007F01122C
:10237D0024DCA3E5826403458370F20BBB00010AE4
:02238D0080E1ED
:01238F00222B
:011FFB0022C3
:0E1B48009000E8EDF0A3EBF0A3EAF0A3E9F0C3
:101B5600759054EF25E054FEF5807590D37590543A
:101B66007580907590D4759054121FFB2081FD7579
:101B760090549000E8E0F5807590D3759054758088
:101B8600107590D4759054121FFB2081FDE49000CF
:101B9600EEF0A3F09000EDE024FFFF9000ECE034BF
:101BA600FFFE9000EEE0FCA3E0FDC39FEC9E503CE0
:101BB6007590549000E9E0FBA3E0FAA3E0F98D826A
:101BC6008C8312067FF5807590D3759054758010BE
:101BD6007590D4759054121FFB2081FD9000EFE0A4
:101BE60004F070B09000EEE004F080A87590549078
:101BF60000E9E0FBA3E0FAA3E0F99000EDE024FFA2
:101C0600FF9000ECE034FF8F82F58312067FF580AB
:101C16007590D37590547580507590D47590541204
:051C26001FFB2081FD01
:011C2B002296
:101A35009000E7EFF0A3EDF0A3EBF0A3EAF0A3E944
:011A4500F0B0
:101A46007590549000E7E0FF25E054FEF580759010
:101A5600D37590547580907590D4759054121FFB71
:101A66002081FD7590549000E8E0F5807590D3755F
:101A760090547580107590D4759054121FFB208178
:101A8600FD7590549000E7E0FF25E04401F5807570
:101A960090D37590547580907590D4759054121F9C
:101AA600FB2081FDE49000EEF0A3F09000EDE02431
:101AB600FFFF9000ECE034FFFEC39000EFE09F9044
:101AC60000EEE09E50437590547580207590D47555
:101AD6009054121FFB2081FD759053121FFB90003E
:101AE600E9E0FBA3E0FAA3E0F99000EEE0FEA3E054
:101AF600F5828E83E5801206BE9000EFE004F0705A
:101B0600AA9000EEE004F080A27590547580687586
:101B160090D4759054121FFB2081FD759053121FAF
:101B2600FB9000E9E0FBA3E0FAA3E0F99000EDE00A
:101B360024FFFF9000ECE034FF8F82F583E58002FE
:021B460006BED9
:0924E500C2AF759020E4F59022CD
:102443007590D075801F759054E4F5807590D175A3
:0C24530090547580807590D275B1C02245
:10218F00E4FEEEC39D5036C2A6E49001FEF0A3F02C
:10219F00EF30E704D2A58002C2A59001FEE4F0A3C0
:1021AF0004F0D2A69001FEE4F0A37402F0EF25E054
:0D21BF00FF9001FEE4F0A37403F00E80C554
:0121CC0022F0
:10247900AC07C2A77D047F8012218FAF047D0812AB
:09248900218FD2A77F010224DC9F
:102425007F521224797F30122479E4FF1224797FB8
:0E2435000A1224797F021224797F060224798C
:081C2C009001FCEEF0A3EFF0C3
:101C3400C2A77D037FA012218F7D06E4FF12218FAE
:101C4400E4FC9001FCE054F0C4540FFF7E00E46017
:101C54000281E5EFB41000400281E5901C6525E0A7
:101C6400738185818B81918197819D81A381A981D4
:101C7400AF81B581BB81C181C781CD81D381D98138
:101C8400DF7D087FBE805E7D087F0680587D087FEB
:101C94007C80527D087F5E804C7D087FC680467DB7
:101CA400087FDA80407D087FFA803A7D087F0E80C5
:101CB400347D087FFE802E7D087FDE80287D087FAE
:101CC400EE80227D087FF2801C7D087FB880167D1F
:101CD400087F7680107D087FF8800A7D087FE88081
:101CE400047D087F5E12218F9001FDE0C4F8540F3B
:101CF400C868F09001FCE0C454F048F00CEC6404B3
:061D040060028146D2A737
:011D0A0022B6
:100FC0000000000000000000000000000000000021
:100FD0000000000000000000000000000000000011
:100FE0000000000000000000000000000000000001
:100FF00000000000000000000000000000000000F1
:0524EE004201E50000C1
:04231600AB07AA0661
:10231A00ED6AFA7D08EA30E70FEB25E0FFEA33645D
:10232A0010FAEF6421FB8007EB25E0FBEA33FADDC4
:05233A00E4AE02AF0358
:01233F00227B
:10214A009001E7EBF0A3EAF0A3E9F0A3ECF0A3ED2A
:01215A00F094
:10215B00E4FFFE9001EA74FFF5F01206E0FCD3E514
:10216B00F09400EC6480948040199001E7E0FBA3AD
:10217B00E475F0011206E0A9F0FA120666FD1223CF
:03218B001680D0EB
:01218E00222E
:1023400090016D7444F0A3E004F0E4A3F0A374FFE3
:10235000F0A3F0E4A3F0A3F0A3F0A3F0A3EFF090B8
:0923600001E5E4F0A3740AF02287
:10224600D39001E6E0946E9001E5E06480948040CE
:1022560009E4F0A3F07EFF7FFF229001E5E475F02C
:10226600011206E0FC746D25F0F58274013CF583DD
:07227600EFF07E007F012262
:1023DE00AB07AA06D39001E6E0946E9001E5E064A7
:1023EE0080948040057EFF7FFF22EAFF122246AFD7
:0523FE0003122246223B
:1024BB009000DAEBF0A3EAF0A3E9F0A3ECF0A3EDC4
:0224CB00F022FD
:1022B4009000D9EFF0D39001E6E094099001E5E0B5
:1022C400648094804019E0FCA3E0FD24F69001743E
:1022D400F07B017A01796D1224BB7E007F01227E9E
:0422E400FF7FFF2257
:1018DA0078197C007D017BFF7A0F79C07E007F40FA
:1018EA0012064012205C7F037E00121E207B017AC2
:1018FA000079161220B7900016E0FCA3E0FDEC90E8
:10190A000000F0EDA3F0121D977F017E00121F90D8
:10191A007F027E00121F179000187401F09000DCFD
:10192A007401F0A37400F0A37412F0A37401F0A37D
:10193A007400F0A37414F07B017A007910120D4A36
:10194A00900010E0FCA3E0FDECFF900018E0FE75AB
:10195A00F006A424FCF582E434FFF583EFF0EE757B
:10196A00F006A424FDF582E434FFF583EDF090003F
:10197A0012E0FCA3E0FDECFF900018E0FE75F00613
:10198A00A424FEF582E434FFF583EFF0EE75F00649
:10199A00A424FFF582E434FFF583EDF0900014E00F
:1019AA00FCA3E0FDECFF900018E0FE75F006A4240D
:1019BA0000F582E43400F583EFF0EE75F006A42416
:1019CA0001F582E43400F583EDF0900018E004F0AC
:1019DA00E0D39402500221277B017A007916122063
:1019EA00B7900016E0FCA3E0FDEC900000F0EDA338
:1019FA00F09000E07401F0A37400F0A37419F0A34E
:101A0A007401F0A37400F0A37499F0A37401F0A315
:101A1A007400F0A37459F07B017A007900E4FDFCAC
:0B1A2A007F20FE1210007F590222B442
:0624F4001224E50224435E
:10205C001224F49000D97460F0E4A3F07B017A00B0
:10206C0079D99000ECF0A304F07D807F48121B48D6
:10207C009000D974C9F0E4A3F07B017A0079D9906F
:10208C0000ECF0A37402F0FD7F48121B489000D9BD
:10209C00747DF0E4A3F07B017A0079D99000ECF028
:0B20AC00A37402F07D037F48021B4874
:081E20009000D9EEF0A3EFF0F1
:101E28001224F47B017A0079DB9000ECE4F0A3043F
:101E3800F07D807F48121A359000D9E0FCA3E0FDC0
:101E48004C7007A3E0549FF08036ED64014C700B92
:101E58009000DBE0549F4420F080259000D9E0FCFE
:101E6800A3E0FD64024C7009A3E0549F4440F08055
:101E78000FED64034C70099000DBE0549F4460F060
:101E88007B017A0079DB9000ECE4F0A304F07D801C
:051E98007F48021B4819
:0B20B7009000D9EBF0A3EAF0A3E9F0E1
:1020C2007B017A0079DC9000ECE4F0A304F0E4FDFB
:1020D2007F48121A359000DCE0FF9000D9E0FBA3A4
:1020E200E0FAA3E0F9E48FF01207219000D9E0FBB7
:0F20F200A3E0FAA3E0F91206F675F00002072149
:0624FA001224E502244358
:101D97001224FA9000D97480F07B017A0079D990E7
:101DA70000ECE4F0A304F07D1D7F0F121B487B01BC
:101DB7007A0079D99000ECE4F0A304F07D1D7F0F41
:101DC700121A359000D9E020E7E4E4F07B017A00AD
:101DD70079D99000ECF0A304F07D1B7F0F121B480C
:101DE700E49000D9F07B017A0079D99000ECF0A358
:101DF70004F07D1D7F0F121B489000D97410F0A3CB
:101E0700743FF07B017A0079D99000ECE4F0A37479
:091E170002F07D1E7F0F021B4842
:081F90009000D9EEF0A3EFF080
:101F98001224FA7B017A0079DB9000ECE4F0A304C8
:101FA800F07D1B7F0F121A359000DBE030E71854E4
:101FB8007FF07B017A0079DB9000ECE4F0A304F079
:101FC8007D1B7F0F121B489000D9E07002A3E090A0
:101FD80000DB6006E04440F08004E054BFF07B0181
:101FE8007A0079DB9000ECE4F0A304F07D1B7F0F0E
:031FF800021B4881
:081F17009000D9EEF0A3EFF0F9
:101F1F007B017A0079DB9000ECE4F0A304F07D1BE9
:101F2F007F0F121A359000DBE030E718547FF07BFB
:101F3F00017A0079DB9000ECE4F0A304F07D1B7FC5
:101F4F000F121B489000DBE054E7F09000D9E0FC43
:101F5F00A3E0FD64044C7007A3E04408F0800DED8E
:101F6F0064084C70079000DBE04410F07B017A00AE
:101F7F0079DB9000ECE4F0A304F07D1B7F0F021BD4
:011F8F004809
:0B0D4A009000D9EBF0A3EAF0A3E9F061
:100D55007B017A0079E29000ECE4F0A304F07D1BBE
:100D65007F0F121A359000E2E020E7184480F07BEF
:100D7500017A0079E29000ECE4F0A304F07D1B7F9A
:100D85000F121B487B017A0079E39000ECE4F0A395
:100D95007402F07D067F0F121A359000E4E075F0BD
:100DA50010A4FFAEF09000E3E0C4540FFDEF4DFF3B
:100DB5009000E5EEF0A3EFF0C3EE64809488900018
:100DC500E5E0FCA3E0FDEC50101202B77B6F7A1250
:100DD5007983783F12020480181202B77B6F7A126A
:100DE5007983783F120204E4FBFA797A78C5120018
:100DF5000A1202F09000E5EEF0A3EFF09000D9E0C2
:100E0500FBA3E0FAA3E0F9EE8FF01207217B017A4C
:100E15000079E39000ECE4F0A37402F07D087F0F05
:100E2500121A359000E4E075F010A4FFAEF09000C2
:100E3500E3E0C4540FFDEF4DFF9000E5EEF0A3EFA6
:100E4500F0C3EE648094889000E5E0FCA3E0FDEC3F
:100E550050101202B77B6F7A127983783F12020421
:100E650080181202B77B6F7A127983783F120204D9
:100E7500E4FBFA797A78C512000A1202F09000E5CF
:100E8500EEF0A3EFF09000DCE0FBA3E0FAA3E0F9BD
:100E9500EE8FF01207217B017A0079E39000ECE4F4
:100EA500F0A37402F07D0A7F0F121A359000E4E07A
:100EB50075F010A4FFAEF09000E3E0C4540FFDEF11
:100EC5004DFF9000E5EEF0A3EFF0C3EE648094884B
:100ED5009000E5E0FCA3E0FDEC50101202B77B6F3B
:100EE5007A127983783F12020480181202B77B6F59
:100EF5007A127983783F120204E4FBFA797A78C58D
:100F050012000A1202F09000E5EEF0A3EFF0900057
:0F0F1500DFE0FBA3E0FAA3E0F9EE8FF002072183
:0F24CD00AAAAAAAAAAAAAAAAEFBEADDE1AAAAA0A
:0E2101009001F0EEF0A3EFF0A3ECF0A3EDF0F0
:10210F00E4FFFED39001F1E09FEE6480F89001F0C0
:10211F00E06480984024E4FDFCD39001F3E09DEC53
:10212F006480F89001F2E064809840070DBD0001D3
:0A213F000C80E60FBF00010E80C9FE
:012149002273
:0624A8003AF583E493FD08
:0D24AE00AE058E80EF4480F590E4F590229D
:101E9D00E4FBFAF9AF0174CD2BF58274241224A85A
:101EAD00090BBB00010AEB64084A70E8E4FAFBAFCA
:101EBD000174D52BF58274241224A8090BBB0001E3
:101ECD000AEB64024A70E8E4FAFBAF0174D72BF514
:101EDD008274241224A8090BBB00010AEB64024A88
:101EED0070E8AF019024D9E493FD1224AE09E4FA11
:101EFD00FBAF0174DA2BF58274241224A8090BBBF5
:091F0D0000010AEB64024A70E8CD
:011F160022A8
:10239000E4FFFE7D1074002FF58274003EF583E0AB
:1023A000F580ED4480F590E4F5900D0FBF00010E2F
:0623B000EF640E4E70DF29
:0123B6002204
:10227D00AB05AA0775900F7D017C007F017E0012D2
:10228D002101E580600975804075908FE4F590AF70
:10229D0003EF25E0FFAE02EE25E025E02F04F580EB
:0722AD0075908FE4F590220B
:10249200AE058E92AE038E939001F7E0F5948F9184
:0624A200E4F591FEFF22AB
:10240300C3EF9402EE94005002800EEF24FFFDEE22
:1024130034FF5EFEED5F4E6004E4FEFF227E007F2C
:02242300012294
:0422E800AD07AC068C
:1022EC00E4FBFAAF0374017E00A807088005C33332
:1022FC00CE33CED8F9FFEE5CFEEF5D4E6005AF033A
:0A230C00AE02220BBB00010A80D9CB
:0E200000900137EEF0A3EFF0A3ECF0A3EDF0AB
:10200E00E4A3F0A3F0FDFCD390013AE09D900139DA
:10201E00E09C403190013CE025E0FF90013BE03335
:10202E00FE900138E05401FBEF4BFF90013BEEF0C8
:10203E00A3EFF0900137E0C313F0A3E013F00DBD52
:0D204E0000010C80C290013BE0FEA3E0FF0A
:01205B002262
:100F24009001F8EEF0A3EFF0A3ECF0A3EDF0C39F73
:100F3400EC9E4006E4FFFEFDFC229001F8E0FCA3D9
:100F4400E0FDECC313FEED13FFD39001FBE09F9093
:100F540001FAE09E5022E41202B7C004C005C006A4
:100F6400C0079001FAE0FCA3E0FDE41202B7D0034D
:100F7400D002D001D00080409001FAE0FEA3E0FF4F
:100F8400C39001F9E09FFD9001F8E09EFCE4120299
:100F9400B71202A1C004C005C006C0079001F8E062
:100FA400FCA3E0FDE41202B7A804A905AA06AB0756
:0C0FB400D007D006D005D00412020422A1
:10245F002564005265616C496E005265616C4F7561
:0A246F007400496D61674F75740039
:0821CD00E0FBA3E0FAA3E0F936
:1021D500900137EBF0A3EAF0A3E9F0900137E0FBBB
:1021E500A3E0FAA3E04A4B701CA3E0F9A3E0FAA32D
:1021F500E0900140C9F0A3EAF0A3E9F07BFF7A245F
:06220500795F120932228C
:101000009000D9EEF0A3EFF0A3ECF0A3EDF0A3EB8A
:07101000F0A3EAF0A3E9F0F0
:101017009000F712081440C90FDB9000D9E0FEA337
:10102700E0FF1224039000DBE07002A3E06017905A
:1010370000F7E0FCA3E0FDA3E0FEA3E0FF1202A19E
:101047009000F712080890013A74FFF0A37424F097
:10105700A37462F09000DD1221CD90013A74FFF085
:10106700A37424F0A37469F09000E31221CD9001DA
:101077003A74FFF0A37424F0A37471F09000E612A1
:1010870021CD9000D9E0FEA3E0FF1222E89000E90D
:10109700EEF0A3EFF0E4A3F0A3F09000D9E0FCA3F7
:1010A700E0FD9000EBE0FEA3E0FFC39DEE9C400255
:1010B700219C9000E9E0FCA3E0FD1220009000EDE8
:1010C700EEF0A3EFF09000EBE0FEA3E07802C3336D
:1010D700CE33CED8F9FF9000DDE0FBA3E0FAA3E022
:1010E700F98F828E8312076EC004C005C006C00741
:1010F7009000EDE0FEA3E07802C333CE33CED8F9FB
:10110700FF9000E3E0FBA3E0FAA3E0F98F828E8370
:10111700D007D006D005D0041207B89000E0E0FB56
:10112700A3E0FAA3E04A4B7006FFFEFDFC80239084
:1011370000EBE0FEA3E07802C333CE33CED8F9FF4D
:101147009000E0E0FBA3E0FAA3E0F98F828E831220
:10115700076EC004C005C006C0079000EDE0FEA3FF
:10116700E07802C333CE33CED8F9FF9000E6E0FB38
:10117700A3E0FAA3E0F98F828E83D007D006D005CB
:10118700D0041207B89000ECE004F070069000EB72
:10119700E004F001A19000F5E4F0A304F09000F35F
:1011A700E4F0A37402F09000D9E0FEA3E0FF900002
:0E11B700F3E0FCA3E0FDD39FEC9E4002C1825A
:1011C500E41202B7A804A905AA06AB079000F7E048
:1011D500FCA3E0FDA3E0FEA3E0FF120204900103DF
:1011E500120808E4FFFEFD7CC0900103E0F8A3E0CF
:1011F500F9A3E0FAA3E0FB1200FB1217B090010778
:10120500120808900103E0FCA3E0FDA3E0FEA3E0C3
:10121500FF1202A11217B090010B120808E4FFFE9D
:10122500FD7CC0900103E0F8A3E0F9A3E0FAA3E098
:10123500FB1200FB12179A90010F12080890010388
:10124500E0FCA3E0FDA3E0FEA3E0FF1202A112175C
:101255009A900113120808E4FFFEFD7C40900113EB
:10126500E0F8A3E0F9A3E0FAA3E0FB1200FB90018C
:1012750017120808E49000EBF0A3F09000D9E0FE07
:10128500A3E0FF9000EBE0FAA3E0FBC39FEA9E40DA
:1012950002C16690010FE0FCA3E0FDA3E0FEA3E020
:1012A500FF900123120808900113E0FCA3E0FDA3C1
:1012B500E0FEA3E0FF90011F120808900107E0FC83
:1012C500A3E0FDA3E0FEA3E0FF90012F1208089024
:1012D500010BE0FCA3E0FDA3E0FEA3E0FF90012BE2
:1012E5001208089000EDEAF0A3EBF0E49000F1F0AD
:1012F500A3F09000F5E0FEA3E0FFC39000F2E09FAD
:101305009000F1E09E4002C15090011FE0FCA3E077
:10131500FDA3E0FEA3E0FF900117E0F8A3E0F9A329
:10132500E0FAA3E0FB1200FB900123E0F8A3E0F94B
:10133500A3E0FAA3E0FB12000690011B1208089037
:10134500011FE0FCA3E0FDA3E0FEA3E0FFA312085C
:101355000890011BE0FCA3E0FDA3E0FEA3E0FFA3D2
:1013650012080890012BE0FCA3E0FDA3E0FEA3E03A
:10137500FF900117E0F8A3E0F9A3E0FAA3E0FB1260
:1013850000FB90012FE0F8A3E0F9A3E0FAA3E0FB4E
:1013950012000690012712080890012BE0FCA3E03B
:1013A500FDA3E0FEA3E0FFA3120808900127E0FCDF
:1013B500A3E0FDA3E0FEA3E0FFA31208089000F55B
:1013C500E0FEA3E0FF9000EEE02FFF9000EDE03E91
:1013D5009000EFF0A3EFF09000EFE0FEA3E07802BD
:1013E500C333CE33CED8F9FF9000E6E0FBA3E0FA95
:1013F500A3E0F98F828E8312076E900127E0F8A390
:10140500E0F9A3E0FAA3E0FB1200FBC004C005C0AD
:1014150006C0079000EFE0FEA3E07802C333CE33A9
:10142500CED8F9FF9000E3E0FBA3E0FAA3E0F98F43
:10143500828E8312076E90011BE0F8A3E0F9A3E00A
:10144500FAA3E0FB1200FBD003D002D001D00012BA
:1014550000069000FB1208089000EFE0FEA3E0787C
:1014650002C333CE33CED8F9FF9000E3E0FBA3E00F
:10147500FAA3E0F98F828E8312076E900127E0F8B8
:10148500A3E0F9A3E0FAA3E0FB1200FBC004C0054A
:10149500C006C0079000EFE0FEA3E07802C333CE9C
:1014A50033CED8F9FF9000E6E0FBA3E0FAA3E0F91C
:1014B5008F828E8312076E90011BE0F8A3E0F9A3DB
:1014C500E0FAA3E0FB1200FBD003D002D001D0006C
:1014D50012000A9000FF1208089000EDE0FEA3E05C
:1014E5007802C333CE33CED8F9FF9000E3E0FBA3F7
:1014F500E0FAA3E0F98F828E8312076E9000FBE07D
:10150500F8A3E0F9A3E0FAA3E0FB120006C004C0CB
:1015150005C006C0079000EFE0FEA3E07802C333E4
:10152500CE33CED8F9FF9000E3E0FBA3E0FAA3E0C9
:10153500F98F828E83D007D006D005D0041207B864
:101545009000EDE0FEA3E07802C333CE33CED8F9A8
:10155500FF9000E6E0FBA3E0FAA3E0F98F828E831B
:1015650012076E9000FFE0F8A3E0F9A3E0FAA3E00C
:10157500FB120006C004C005C006C0079000EFE0DE
:10158500FEA3E07802C333CE33CED8F9FF9000E650
:10159500E0FBA3E0FAA3E0F98F828E83D007D006A3
:1015A500D005D0041207B89000EDE0FEA3E0780264
:1015B500C333CE33CED8F9FF9000E3E0FBA3E0FAC6
:1015C500A3E02FF9EA3EFAC003C002C00112074E9C
:1015D5009000FBE0F8A3E0F9A3E0FAA3E0FB12001A
:1015E5000AD001D002D00312079E9000EDE0FEA3C1
:1015F500E07802C333CE33CED8F9FF9000E6E0FBA6
:10160500A3E0FAA3E02FF9EA3EFAC003C002C00145
:1016150012074E9000FFE0F8A3E0F9A3E0FAA3E07B
:10162500FB12000AD001D002D00312079E9000EEF3
:10163500E004F070069000EDE004F09000F2E004A4
:10164500F070069000F1E004F041F79000F3E0FE41
:10165500A3E0FF9000ECE02FF09000EBE03EF041BE
:0F166500809000F3E0FEA3E0FFA3EEF0A3EFF010
:1016740025E0FFEE339000F3F0A3EFF021AD9000EE
:0A168400DBE07002A3E07002E15108
:10168E009000D9E0FCA3E0FDE41202B79001031232
:10169E000808E49000EBF0A3F09000D9E0FEA3E080
:1016AE00FF9000EBE0FCA3E0FDC39FEC9E4002E147
:1016BE0051EDAE047802C333CE33CED8F9FF90008D
:1016CE00E3E0FBA3E0FAA3E02FF9EA3EFAC003C081
:1016DE0002C00112074E900103E0F8A3E0F9A3E067
:1016EE00FAA3E0FB120204D001D002D00312079E2F
:1016FE009000EBE0FEA3E07802C333CE33CED8F9F0
:10170E00FF9000E6E0FBA3E0FAA3E02FF9EA3EFA31
:10171E00C003C002C00112074E900103E0F8A3E01F
:10172E00F9A3E0FAA3E0FB120204D001D002D00329
:10173E0012079E9000ECE004F070069000EBE004BF
:03174E00F0C1A740
:011751002275
:1000030002035CE86480F8E933E83360110460F0CC
:10001300ED33EC337009E8FCE9FDEAFEEBFF220463
:1000230060DED3EB9FEA9EE99DE8C2E78CF0C2F75E
:1000330095F0400CE8CCF8E9CDF9EACEFAEBCFFB2A
:1000430012032785D0F05804700320D5B3E8047059
:10005300075002B2D502036692D5EC0460F7E4CCF4
:10006300C0E0C398F8603B94186008400DD0E0FBF3
:1000730002033EE4FBFAC9FC8028E830E406E4C945
:10008300FBE4CAFCE830E305E4C9CACBFCE8540747
:100093006010F8C3E913F9EA13FAEB13FBEC13FC52
:1000A300D8F130F52FC3E49CFCEF9BFFEE9AFEEDF5
:1000B30099FDD0E0FBEF4E4D4C701222DB0302039F
:1000C30063EC2CFCEF33FFEE33FEED33FDED30E755
:1000D300EB02033EEF2BFFEE3AFEED39FDD0E0FBE2
:1000E30050130BBB0003020366ED13FDEE13FEEF8B
:0800F30013FFEC13FC02033EB5
:1000FB00EC4D6011E8497017ED33EC3304600DE4FF
:10010B00FCFFFEFD22E933E8330470F802035C12B6
:10011B00032758046009E4CC2481500628500902B7
:10012B000366284003020363C0E0EB4A7044B980C6
:10013B0006D0E0FB020352EF4E701CBD8008EBFFB4
:10014B00EAFEE9FD80EBE98DF0A4FEE5F00201E4A7
:10015B00E9CDF9EAFEEBFFEF89F0A4FCE5F0CE89DF
:10016B00F0A42EFFE435F0CD89F0A42DFEE435F09C
:10017B008067EF4E7005BD80D780C3EF8BF0A4ACCA
:10018B00F0EE8BF0A42CFCE435F0F8EF8AF0A42C05
:10019B00E5F038FCE433CB8DF0A42CFCE5F03BF818
:1001AB00EE8AF0A42CFCE5F038F8E433CF89F0A408
:1001BB002CFCE5F038CF3400CE89F0A42FFFE5F00E
:1001CB003EFEE433C98DF0A42EFEE5F039CD8AF066
:1001DB00A42FFFE5F03EFEE43DFD33D0E0FB5007DE
:1001EB000BBB000F020366EC2CFCEF33FFEE33FE70
:0601FB00ED33FD02033E9E
:10020100020366EC5D046005E85904700302035CB7
:10021100120327580460F6EC4860F2EC7004FDFE0E
:10022100FF22C860DB2481C85009C39860025006D0
:100231000203639850CAF582E9294B4A7005AB82E3
:1002410002035275F0007C1A7880C3EF9BEE9AEDA1
:1002510099400DC3EF9BFFEE9AFEED99FDE842F048
:10026100DC23ACF0D0E0FFD0E0FED0E0FDAB82209B
:10027100E7101BEB60BAEC2CFCEF33FFEE33FEED25
:1002810033FD02033EE803F830E705C0F075F000E6
:10029100EF2FFFEE33FEED33FD40B830E7C280AA09
:1002A100ED33EC33600A047003BD8004ECB2E7FC6B
:0102B100222A
:1002B20075F020800E75F010800575F0087D007EC7
:1002C200007F003392D530D503120740EC33401043
:1002D200EF33FFEE33FEED33FDEC33FCD5F0ED22D0
:0E02E200E5F0247EA2D513CC92E7CDCEFF220C
:1002F000EDD2E7CD33EC3392D524814006E4FFFE06
:10030000FDFC22FCE4CFCECDCC24E0501174FF8064
:10031000EDC3CC13CCCD13CDCE13CECF13CF047001
:07032000F030D5DE020740BA
:1008C700E5082440F582E43401F583E00508229029
:1008D700013D300703900140E475F001120845021D
:1008E70006662000E97F2ED2008018EF540F24906F
:1008F700D43440D4FF30040BEF24BFB41A005003A4
:100907002461FFE50960021509050CE50C70020575
:100917000B30070E90013DE475F001120845EF0218
:1009270006AC0223B77403D2078003E4C207F508B5
:1009370090013D12085CE4F509F50BF50CE509603B
:10094700077F2012090A80F5750AFFC201C200C29B
:1009570002C203C205C206C2081208D6FF700D30D4
:1009670007057F0012091BAF0CAE0B22B4255FC22F
:10097700D5C2041208D6FF24D0B40A00501A75F065
:100987000A780930D50508B6FF0106C6A426F62061
:10099700D5047002D20380D924CFB41A00EF5004D3
:1009A700C2E5D204020C0DD20180C6D20080C0D2AB
:1009B7000280BCD2D580BAD20580B47F2012090A42
:1009C7002002077401B5090040F11208C7FF120998
:1009D7000A020944D208D20680951208C7FB1208FA
:1009E700C7FA1208C7F94A4B7006790B7A0D7BFFD5
:1009F70020022EE509602A7E008E8275830012068A
:100A07007F60060EEE650A70F0C2D5EBC0E0EAC063
:100A1700E0E9C0E0EE120C6ED0E0F9D0E0FAD0E0E9
:100A2700FB120666FF60AAEBC0E0EAC0E0E9C0E09F
:100A370012090AD0E02401F9D0E03400FAD0E0FB33
:100A4700E50A0460DCD50AD98087D20280A2120C9D
:100A57005060F7E50A700104120371A90A600DE5F9
:100A67000A600914F50A120CF8EF60F3EA30E7029E
:100A7700F404C3995079EAF4250A0430E701E40441
:100A8700F50A800D120C5060C1EA050A250A120307
:100A970071EA90016CF030E701E4250A04D50A04F5
:100AA70020050114120C6EE4C0E0120CF890016CE2
:100AB700E0601320E70714F01208F2802204F0D058
:100AC700E014C0E07F001208F2E50A60071208E9A7
:100AD700150A800B3005031208E9D0E0020944D05B
:100AE700E00480C4120C50609EE50A041203719062
:100AF700016CEAF0E50A2005026001042404120CE7
:010B07006E7F
:100B080074FF04C0E0120CF81208F2E50A2005028E
:100B180060031208E9D0E0B50AE87F451208FC90A6
:100B2800016CE07F2B30E7047F2DF404C0E012094C
:100B38000AD0E075F00A84C0F01208F3D0E0120879
:100B4800F3020944791080027908C206C2088008B5
:100B5800D2D5790A8004790AC2D5E50A047002F56B
:100B68000AE4FAFDFEFF1208C7FC7B0820011312F5
:100B780008C7FD7B1030000A1208C7FE1208C7FF1D
:100B88007B20EC3382D592D55013C3E43000069F06
:100B9800FFE49EFEE42001039DFDE49CFCE4CBF809
:100BA800C201EC700CCFCECDCCE824F8F870F380FD
:100BB80017C3EF33FFEE33FEED33FDEC33FCEB33BD
:100BC800FB994002FB0FD8E9EB300105F8D0E0C4EF
:100BD80048B201C0E00AEC4D4E4F78207B0070C24D
:100BE800EAB50A0040BCC0E0120C70D0F0D0E0209A
:100BF8000104C4C0E0C4B201C0F01208F3D0F0D5BB
:100C0800F0EB02094412086509E1530B4C5809B28C
:100C18004C09AE420B504F0B58440B584909C74377
:100C28000B5E550A8B460AEB450A55470D2B5009B2
:100C3800B62D09BA2E09DD2B09BE2309DB200D14B8
:100C48002A097648000009D5E50AB4FF03750A06A3
:100C58001208C7FC1208C7FD1208C7FE1208C7FF12
:100C68009001650203AE790AA2D520031430050964
:100C7800B910020404B9080104A2D52006025001E3
:100C8800042002689202B509005034C0E07F203089
:100C980003197F30A20272067205500F120CC7C2E8
:100CA80002C206C205C2087F30800F300503E9C0C2
:100CB800E012090A300503D0E0F9D0E0B509CC30DC
:100CC80005177F30B9100C12090A7F583004077FC6
:100CD800788003B9080312090A3002057F2D02093A
:100CE8000A7F202008F87F2B2006F322920280CF6B
:100CF8007F00B40700500B2465F582E43401F583C6
:100D0800E0FF22286E756C6C2900D2011208C730EA
:100D180001F8C201780930D50108F60209762D508C
:100D28004349581208C72403B405004001E4900D54
:100D380026931208FB743A1208FBD20375090402C1
:020D48000B4C52
:101752003A70FA83BCAAE9E43E81E0F8BF9DE9E66B
:101762003F80000039283C1ABB9969663DA335E3E6
:10177200BF255DE73FC90FDB418DDBCCC44936EEA7
:1017820045C9913FC5B0F83D3F800000C317F5340D
:10179200452FFA73C60AFDDD12185B04A2E192001E
:1017A2001420E01590175274041204B380301218FA
:1017B2005B30E102B20020E0EBA883A982900137FE
:1017C2001208088982888390176674041204B3850C
:1017D20082F09001371207EC85F0821200FBED4C8B
:1017E2006007300004EC6480FC2212185BC0E0A8A1
:1017F20083A9829001371208088982888390178A08
:1018020074031204B38582F09001371207EC85F05D
:10181200821200FB900137E0CCF0A3E0CDF0A3E010
:10182200CEF0A3E0CFF090177A74031204B3D08203
:101832008582F09001371207EC85F082E58230E074
:1018420007120204B2008096EFCBFFEECAFEEDC98A
:10185200FDECC8FC1202048085ED33EC547FCC33DE
:10186200920024605007D0E0D0E002035C7B837AD0
:10187200F97922783E1200FBEDF933ECF83324813A
:101882005011EFFBEEFA1202F01202B2ECB2E7FCD8
:1018920012000AED33EC33602F2403F8C313FCED7E
:1018A20092E7FDE82481E4501FECF8EDF9EEFAEF3F
:1018B200FB1202F0EF04C2E0FCF5821202BCECB2B1
:1018C200E7FC12000AE58203FAED33EC33600714F9
:0818D20013FCED92E7FDEA2290
:10032700E9D2E7C933E833F892D5EDD2E7CD33EC1C
:0703370033FC5002B2D52295
:10033E00EC30E7100FBF000C0EBE00080DBD000420
:10034E000BEB6014A2D5EB13FCED92E7FD2274FFCC
:10035E00FCFDFEFF22E480F8A2D574FF13FC7D8025
:03036E00E480EF39
:10037100F920E73624F950037907E4F42402FBE578
:1003810082158270021583DBF6E024FB501BE960C5
:1003910014E4F0E582158270021583E004F0B40ADA
:0D03A10008E4F0D9EE7401F00A22C2D52262
:1003AE00ED33EC3392D5FA602AB4FF33EDC2E77B1E
:1003BE00FF60067A0379D3E4227A0379DC20D50430
:1003CE007A0379D7224E614E002B494E46002D49B5
:1003DE004E4600E47A08F0A3DAFC7B00740722C0D4
:1003EE0083C082ECC0E0EDC0E0EEC0E0EFC0E0EA1A
:1003FE0075F010A4CAABF075F04DA42BFBE435F0EC
:10040E00FCEA2410FAEB34C5FBEC34D9FCEDC2E760
:10041E00FF75F056A4F42411C5F0F434C58FF0A482
:10042E002AE5F03BE43CF020E714120530D0E0FF63
:10043E00D0E0FED0E0FDD0E0FC1202048014F40403
:10044E00120530D0E0FFD0E0FED0E0FDD0E0FC128F
:10045E0000FBD082D083E0FAEDD2E7CD33EC33242B
:10046E0082FBE4C3CF33CFCE33CECD33CD33DBF3EC
:10047E007B0775F00A846004F0A31B0AE5F0F0A375
:10048E008FF0740AA4FFACF08EF0740AA42CFEACAC
:10049E00F050010C8DF0740AA42CFDE435F0F0A39D
:0504AE00DBDE740722F3
:1004B300C0E0EFFBEEFAEDF9ECF81200FBD0E0F54B
:1004C300F0EFFBEEFAEDF9ECF81207DCA3A3A3A31C
:1004D300E8C0E0E9C0E0EAC0E0EBC0E0C0F0120031
:1004E300FB1207F8A3A3A3A312000AD0F0D0E0FBEA
:0D04F300D0E0FAD0E0F9D0E0F8D5F0D42246
:100500003F8000004120000042C80000447A000003
:10051000461C400047C35000497424004B18968085
:100520004CBEBC205A0E1BCA6753C21C749DC5AE7C
:10053000FB60065407601C232312055EEB543860F1
:100540000912054A1205591200FBECF8EDF9EEFA12
:10055000EFCB22EB12055980F1543803241C90058F
:1005600000FE93FC0EEE93FD0EEE930ECE93FF2253
:101D17000218DAE493A3F8E493A34003F68001F2F0
:101D270008DFF48029E493A3F85407240CC8C333CD
:101D3700C4540F4420C8834004F456800146F6DF9C
:101D4700E4800B01020408102040809024EEE47E1A
:101D5700019360BCA3FF543F30E509541FFEE49391
:101D6700A360010ECF54C025E060A840B8E493A358
:101D7700FAE493A3F8E493A3C8C582C8CAC583CA83
:101D8700F0A3C8C582C8CAC583CADFE9DEE780BE3B
:0124F30000E8
:10057000E709F608DFFA8046E709F208DFFA803E6D
:1005800088828C83E709F0A3DFFA8032E309F6085A
:10059000DFFA8078E309F208DFFA807088828C83C2
:1005A000E309F0A3DFFA806489828A83E0A3F60876
:1005B000DFFA805889828A83E0A3F208DFFA804C50
:1005C00080D280FA80C680D4806980F28033801027
:1005D00080A680EA809A80A880DA80E280CA803390
:1005E00089828A83ECFAE493A3C8C582C8CCC58308
:1005F000CCF0A3C8C582C8CCC583CCDFE9DEE780D8
:100600000D89828A83E493A3F608DFF9ECFAA9F056
:10061000EDFB2289828A83ECFAE0A3C8C582C8CCAC
:10062000C583CCF0A3C8C582C8CCC583CCDFEADEC5
:10063000E880DB89828A83E493A3F208DFF980CC27
:1006400088F0EF60010E4E60C388F0ED2402B40420
:100650000050B9F582EB2402B4040050AF232345C7
:0606600082239005C07327
:10066600BB010689828A83E0225002E722BBFE0292
:09067600E32289828A83E49322C5
:10067F00BB010CE58229F582E5833AF583E0225030
:10068F0006E92582F8E622BBFE06E92582F8E2227A
:0D069F00E58229F582E5833AF583E4932294
:1006AC00BB010689828A83F0225002F722BBFE012D
:0206BC00F32227
:1006BE00F8BB010DE58229F582E5833AF583E8F072
:1006CE00225006E92582C8F622BBFE05E92582C81E
:0206DE00F22206
:1006E000A3F8E0C5F025F0F0E582158270021583CD
:0606F000E0C838F0E8222A
:1006F600BB010A89828A83E0F5F0A3E022500687CF
:10070600F009E71922BBFE07E3F5F009E319228990
:0B071600828A83E493F5F074019322C3
:10072100BB010A89828A83F0E5F0A3F0225006F723
:0F07310009A7F01922BBFE06F3E5F009F3192220
:0E074000C3E49FFFE49EFEE49DFDE49CFC22CA
:10074E00BB010789828A830208975005E9F80208DF
:10075E008BBBFE05E9F80208A389828A830207DCB7
:10076E00BB010DE58229F582E5833AF583020897F0
:10077E005007E92582F802088BBBFE07E92582F8AF
:10078E000208A3E58229F582E5833AF5830207DCA8
:10079E00BB010789828A830208085005E9F802081E
:0A07AE00AFBBFE05E9F80208BB220C
:1007B800BB010DE58229F582E5833AF58302080835
:1007C8005007E92582F80208AFBBFE07E92582F841
:0407D8000208BB2236
:1007DC00E493FC740193FD740293FE740393FF2263
:0C07EC00E0F8A3E0F9A3E0FAA3E0FB2290
:1007F800E493F8740193F9740293FA740393FB2257
:0C080800ECF0A3EDF0A3EEF0A3EFF02263
:10081400A8828583F0D083D08212082B12082B1271
:10082400082B12082BE473E493A3C583C5F0C58396
:10083400C8C582C8F0A3C583C5F0C583C8C582C82E
:010844002291
:10084500F8E0FBA3A3E0F925F0F0E582158270023C
:070855001583E0FA38F022E0
:09085C00EBF0A3EAF0A3E9F0229D
:10086500D083D082F8E4937012740193700DA3A322
:1008750093F8740193F5828883E473740293686036
:06088500EFA3A3A380DF36
:1023B700EFB40A07740D1223C2740A309811A89952
:1023C700B8130CC2983098FDA899C298B811F63086
:0723D70099FDC299F599225E
:0C088B00E6FC08E6FD08E6FE08E6FF2299
:0C089700E0FCA3E0FDA3E0FEA3E0FF22D4
:0C08A300E2FC08E2FD08E2FE08E2FF2291
:0C08AF00ECF608EDF608EEF608EFF62275
:0C08BB00ECF208EDF208EEF208EFF22279
:00000001FF
